{
  "_format": "hh-sol-artifact-1",
  "contractName": "Keyboards",
  "sourceName": "contracts/Keyboards.sol",
  "abi": [
    {
      "inputs": [
        {
          "internalType": "enum Keyboards.KeyboardKind",
          "name": "_kind",
          "type": "uint8"
        },
        {
          "internalType": "bool",
          "name": "_isPBT",
          "type": "bool"
        },
        {
          "internalType": "string",
          "name": "_filter",
          "type": "string"
        }
      ],
      "name": "create",
      "outputs": [],
      "stateMutability": "nonpayable",
      "type": "function"
    },
    {
      "inputs": [
        {
          "internalType": "uint256",
          "name": "",
          "type": "uint256"
        }
      ],
      "name": "createdKeyboards",
      "outputs": [
        {
          "internalType": "enum Keyboards.KeyboardKind",
          "name": "kind",
          "type": "uint8"
        },
        {
          "internalType": "bool",
          "name": "isPBT",
          "type": "bool"
        },
        {
          "internalType": "string",
          "name": "filter",
          "type": "string"
        }
      ],
      "stateMutability": "view",
      "type": "function"
    },
    {
      "inputs": [],
      "name": "getKeyboards",
      "outputs": [
        {
          "components": [
            {
              "internalType": "enum Keyboards.KeyboardKind",
              "name": "kind",
              "type": "uint8"
            },
            {
              "internalType": "bool",
              "name": "isPBT",
              "type": "bool"
            },
            {
              "internalType": "string",
              "name": "filter",
              "type": "string"
            }
          ],
          "internalType": "struct Keyboards.Keyboard[]",
          "name": "",
          "type": "tuple[]"
        }
      ],
      "stateMutability": "view",
      "type": "function"
    }
  ],
  "bytecode": "0x608060405234801561001057600080fd5b50610bbd806100206000396000f3fe608060405234801561001057600080fd5b50600436106100415760003560e01c806352810aa114610046578063778bc84714610064578063d80ad43114610096575b600080fd5b61004e6100b2565b60405161005b919061061b565b60405180910390f35b61007e6004803603810190610079919061067d565b6101f9565b60405161008d93929190610712565b60405180910390f35b6100b060048036038101906100ab9190610806565b6102d5565b005b60606000805480602002602001604051908101604052809291908181526020016000905b828210156101f057838290600052602060002090600202016040518060600160405290816000820160009054906101000a900460ff16600381111561011e5761011d610413565b5b60038111156101305761012f610413565b5b81526020016000820160019054906101000a900460ff1615151515815260200160018201805461015f906108a9565b80601f016020809104026020016040519081016040528092919081815260200182805461018b906108a9565b80156101d85780601f106101ad576101008083540402835291602001916101d8565b820191906000526020600020905b8154815290600101906020018083116101bb57829003601f168201915b505050505081525050815260200190600101906100d6565b50505050905090565b6000818154811061020957600080fd5b90600052602060002090600202016000915090508060000160009054906101000a900460ff16908060000160019054906101000a900460ff1690806001018054610252906108a9565b80601f016020809104026020016040519081016040528092919081815260200182805461027e906108a9565b80156102cb5780601f106102a0576101008083540402835291602001916102cb565b820191906000526020600020905b8154815290600101906020018083116102ae57829003601f168201915b5050505050905083565b600060405180606001604052808660038111156102f5576102f4610413565b5b8152602001851515815260200184848080601f016020809104026020016040519081016040528093929190818152602001838380828437600081840152601f19601f820116905080830192505050505050508152509050600081908060018154018082558091505060019003906000526020600020906002020160009091909190915060008201518160000160006101000a81548160ff021916908360038111156103a3576103a2610413565b5b021790555060208201518160000160016101000a81548160ff02191690831515021790555060408201518160010190816103dd9190610ab5565b5050505050505050565b600081519050919050565b600082825260208201905092915050565b6000819050602082019050919050565b7f4e487b7100000000000000000000000000000000000000000000000000000000600052602160045260246000fd5b6004811061045357610452610413565b5b50565b600081905061046482610442565b919050565b600061047482610456565b9050919050565b61048481610469565b82525050565b60008115159050919050565b61049f8161048a565b82525050565b600081519050919050565b600082825260208201905092915050565b60005b838110156104df5780820151818401526020810190506104c4565b60008484015250505050565b6000601f19601f8301169050919050565b6000610507826104a5565b61051181856104b0565b93506105218185602086016104c1565b61052a816104eb565b840191505092915050565b600060608301600083015161054d600086018261047b565b5060208301516105606020860182610496565b506040830151848203604086015261057882826104fc565b9150508091505092915050565b60006105918383610535565b905092915050565b6000602082019050919050565b60006105b1826103e7565b6105bb81856103f2565b9350836020820285016105cd85610403565b8060005b8581101561060957848403895281516105ea8582610585565b94506105f583610599565b925060208a019950506001810190506105d1565b50829750879550505050505092915050565b6000602082019050818103600083015261063581846105a6565b905092915050565b600080fd5b600080fd5b6000819050919050565b61065a81610647565b811461066557600080fd5b50565b60008135905061067781610651565b92915050565b6000602082840312156106935761069261063d565b5b60006106a184828501610668565b91505092915050565b6106b381610469565b82525050565b6106c28161048a565b82525050565b600082825260208201905092915050565b60006106e4826104a5565b6106ee81856106c8565b93506106fe8185602086016104c1565b610707816104eb565b840191505092915050565b600060608201905061072760008301866106aa565b61073460208301856106b9565b818103604083015261074681846106d9565b9050949350505050565b6004811061075d57600080fd5b50565b60008135905061076f81610750565b92915050565b61077e8161048a565b811461078957600080fd5b50565b60008135905061079b81610775565b92915050565b600080fd5b600080fd5b600080fd5b60008083601f8401126107c6576107c56107a1565b5b8235905067ffffffffffffffff8111156107e3576107e26107a6565b5b6020830191508360018202830111156107ff576107fe6107ab565b5b9250929050565b600080600080606085870312156108205761081f61063d565b5b600061082e87828801610760565b945050602061083f8782880161078c565b935050604085013567ffffffffffffffff8111156108605761085f610642565b5b61086c878288016107b0565b925092505092959194509250565b7f4e487b7100000000000000000000000000000000000000000000000000000000600052602260045260246000fd5b600060028204905060018216806108c157607f821691505b6020821081036108d4576108d361087a565b5b50919050565b7f4e487b7100000000000000000000000000000000000000000000000000000000600052604160045260246000fd5b60008190508160005260206000209050919050565b60006020601f8301049050919050565b600082821b905092915050565b60006008830261096b7fffffffffffffffffffffffffffffffffffffffffffffffffffffffffffffffff8261092e565b610975868361092e565b95508019841693508086168417925050509392505050565b6000819050919050565b60006109b26109ad6109a884610647565b61098d565b610647565b9050919050565b6000819050919050565b6109cc83610997565b6109e06109d8826109b9565b84845461093b565b825550505050565b600090565b6109f56109e8565b610a008184846109c3565b505050565b5b81811015610a2457610a196000826109ed565b600181019050610a06565b5050565b601f821115610a6957610a3a81610909565b610a438461091e565b81016020851015610a52578190505b610a66610a5e8561091e565b830182610a05565b50505b505050565b600082821c905092915050565b6000610a8c60001984600802610a6e565b1980831691505092915050565b6000610aa58383610a7b565b9150826002028217905092915050565b610abe826104a5565b67ffffffffffffffff811115610ad757610ad66108da565b5b610ae182546108a9565b610aec828285610a28565b600060209050601f831160018114610b1f5760008415610b0d578287015190505b610b178582610a99565b865550610b7f565b601f198416610b2d86610909565b60005b82811015610b5557848901518255600182019150602085019450602081019050610b30565b86831015610b725784890151610b6e601f891682610a7b565b8355505b6001600288020188555050505b50505050505056fea26469706673582212201198ff3150d4d584b3c6db0705b3bd705456507b688438225601cdc52e9b58ca64736f6c63430008110033",
  "linkReferences": {},
  "deployedLinkReferences": {}
}